{
  "_format": "hh-sol-artifact-1",
  "contractName": "Cert",
  "sourceName": "contracts/Cert.sol",
  "abi": [
    {
      "inputs": [],
      "stateMutability": "nonpayable",
      "type": "constructor"
    },
    {
      "anonymous": false,
      "inputs": [
        {
          "indexed": true,
          "internalType": "string",
          "name": "",
          "type": "string"
        },
        {
          "indexed": false,
          "internalType": "uint256",
          "name": "",
          "type": "uint256"
        },
        {
          "indexed": false,
          "internalType": "string",
          "name": "",
          "type": "string"
        }
      ],
      "name": "CertificateIssued",
      "type": "event"
    },
    {
      "inputs": [
        {
          "internalType": "uint256",
          "name": "",
          "type": "uint256"
        }
      ],
      "name": "Certificate",
      "outputs": [
        {
          "internalType": "string",
          "name": "name",
          "type": "string"
        },
        {
          "internalType": "string",
          "name": "course",
          "type": "string"
        },
        {
          "internalType": "string",
          "name": "grade",
          "type": "string"
        },
        {
          "internalType": "string",
          "name": "date",
          "type": "string"
        }
      ],
      "stateMutability": "view",
      "type": "function"
    },
    {
      "inputs": [
        {
          "internalType": "uint256",
          "name": "_id",
          "type": "uint256"
        }
      ],
      "name": "getCert",
      "outputs": [
        {
          "internalType": "uint256",
          "name": "",
          "type": "uint256"
        },
        {
          "internalType": "string",
          "name": "",
          "type": "string"
        },
        {
          "internalType": "string",
          "name": "",
          "type": "string"
        },
        {
          "internalType": "string",
          "name": "",
          "type": "string"
        },
        {
          "internalType": "string",
          "name": "",
          "type": "string"
        }
      ],
      "stateMutability": "view",
      "type": "function"
    },
    {
      "inputs": [
        {
          "internalType": "uint256",
          "name": "_id",
          "type": "uint256"
        },
        {
          "internalType": "string",
          "name": "_name",
          "type": "string"
        },
        {
          "internalType": "string",
          "name": "_course",
          "type": "string"
        },
        {
          "internalType": "string",
          "name": "_grade",
          "type": "string"
        },
        {
          "internalType": "string",
          "name": "_date",
          "type": "string"
        }
      ],
      "name": "issue",
      "outputs": [],
      "stateMutability": "nonpayable",
      "type": "function"
    }
  ],
  "bytecode": "0x6080604052348015600f57600080fd5b50336000806101000a81548173ffffffffffffffffffffffffffffffffffffffff021916908373ffffffffffffffffffffffffffffffffffffffff160217905550610f308061005f6000396000f3fe608060405234801561001057600080fd5b50600436106100415760003560e01c80634e9e195b14610046578063b449e71614610079578063d1e7be26146100ad575b600080fd5b610060600480360381019061005b9190610771565b6100c9565b604051610070949392919061082e565b60405180910390f35b610093600480360381019061008e9190610771565b610319565b6040516100a495949392919061089e565b60405180910390f35b6100c760048036038101906100c29190610a42565b6105b4565b005b60016020528060005260406000206000915090508060000180546100ec90610b5c565b80601f016020809104026020016040519081016040528092919081815260200182805461011890610b5c565b80156101655780601f1061013a57610100808354040283529160200191610165565b820191906000526020600020905b81548152906001019060200180831161014857829003601f168201915b50505050509080600101805461017a90610b5c565b80601f01602080910402602001604051908101604052809291908181526020018280546101a690610b5c565b80156101f35780601f106101c8576101008083540402835291602001916101f3565b820191906000526020600020905b8154815290600101906020018083116101d657829003601f168201915b50505050509080600201805461020890610b5c565b80601f016020809104026020016040519081016040528092919081815260200182805461023490610b5c565b80156102815780601f1061025657610100808354040283529160200191610281565b820191906000526020600020905b81548152906001019060200180831161026457829003601f168201915b50505050509080600301805461029690610b5c565b80601f01602080910402602001604051908101604052809291908181526020018280546102c290610b5c565b801561030f5780601f106102e45761010080835404028352916020019161030f565b820191906000526020600020905b8154815290600101906020018083116102f257829003601f168201915b5050505050905084565b600060608060608060006001600088815260200190815260200160002060405180608001604052908160008201805461035190610b5c565b80601f016020809104026020016040519081016040528092919081815260200182805461037d90610b5c565b80156103ca5780601f1061039f576101008083540402835291602001916103ca565b820191906000526020600020905b8154815290600101906020018083116103ad57829003601f168201915b505050505081526020016001820180546103e390610b5c565b80601f016020809104026020016040519081016040528092919081815260200182805461040f90610b5c565b801561045c5780601f106104315761010080835404028352916020019161045c565b820191906000526020600020905b81548152906001019060200180831161043f57829003601f168201915b5050505050815260200160028201805461047590610b5c565b80601f01602080910402602001604051908101604052809291908181526020018280546104a190610b5c565b80156104ee5780601f106104c3576101008083540402835291602001916104ee565b820191906000526020600020905b8154815290600101906020018083116104d157829003601f168201915b5050505050815260200160038201805461050790610b5c565b80601f016020809104026020016040519081016040528092919081815260200182805461053390610b5c565b80156105805780601f1061055557610100808354040283529160200191610580565b820191906000526020600020905b81548152906001019060200180831161056357829003601f168201915b5050505050815250509050868160000151826020015183604001518460600151955095509550955095505091939590929450565b60008054906101000a900473ffffffffffffffffffffffffffffffffffffffff1673ffffffffffffffffffffffffffffffffffffffff163373ffffffffffffffffffffffffffffffffffffffff1614610642576040517f08c379a000000000000000000000000000000000000000000000000000000000815260040161063990610bd9565b60405180910390fd5b60405180608001604052808581526020018481526020018381526020018281525060016000878152602001908152602001600020600082015181600001908161068b9190610da5565b5060208201518160010190816106a19190610da5565b5060408201518160020190816106b79190610da5565b5060608201518160030190816106cd9190610da5565b50905050826040516106df9190610eb3565b60405180910390207f47c08e6c37338768e3085d0555c0d096327cc19b8b7c3918edbd0932c942852f8684604051610718929190610eca565b60405180910390a25050505050565b6000604051905090565b600080fd5b600080fd5b6000819050919050565b61074e8161073b565b811461075957600080fd5b50565b60008135905061076b81610745565b92915050565b60006020828403121561078757610786610731565b5b60006107958482850161075c565b91505092915050565b600081519050919050565b600082825260208201905092915050565b60005b838110156107d85780820151818401526020810190506107bd565b60008484015250505050565b6000601f19601f8301169050919050565b60006108008261079e565b61080a81856107a9565b935061081a8185602086016107ba565b610823816107e4565b840191505092915050565b6000608082019050818103600083015261084881876107f5565b9050818103602083015261085c81866107f5565b9050818103604083015261087081856107f5565b9050818103606083015261088481846107f5565b905095945050505050565b6108988161073b565b82525050565b600060a0820190506108b3600083018861088f565b81810360208301526108c581876107f5565b905081810360408301526108d981866107f5565b905081810360608301526108ed81856107f5565b9050818103608083015261090181846107f5565b90509695505050505050565b600080fd5b600080fd5b7f4e487b7100000000000000000000000000000000000000000000000000000000600052604160045260246000fd5b61094f826107e4565b810181811067ffffffffffffffff8211171561096e5761096d610917565b5b80604052505050565b6000610981610727565b905061098d8282610946565b919050565b600067ffffffffffffffff8211156109ad576109ac610917565b5b6109b6826107e4565b9050602081019050919050565b82818337600083830152505050565b60006109e56109e084610992565b610977565b905082815260208101848484011115610a0157610a00610912565b5b610a0c8482856109c3565b509392505050565b600082601f830112610a2957610a2861090d565b5b8135610a398482602086016109d2565b91505092915050565b600080600080600060a08688031215610a5e57610a5d610731565b5b6000610a6c8882890161075c565b955050602086013567ffffffffffffffff811115610a8d57610a8c610736565b5b610a9988828901610a14565b945050604086013567ffffffffffffffff811115610aba57610ab9610736565b5b610ac688828901610a14565b935050606086013567ffffffffffffffff811115610ae757610ae6610736565b5b610af388828901610a14565b925050608086013567ffffffffffffffff811115610b1457610b13610736565b5b610b2088828901610a14565b9150509295509295909350565b7f4e487b7100000000000000000000000000000000000000000000000000000000600052602260045260246000fd5b60006002820490506001821680610b7457607f821691505b602082108103610b8757610b86610b2d565b5b50919050565b7f556e617574686f72697365642041636365737300000000000000000000000000600082015250565b6000610bc36013836107a9565b9150610bce82610b8d565b602082019050919050565b60006020820190508181036000830152610bf281610bb6565b9050919050565b60008190508160005260206000209050919050565b60006020601f8301049050919050565b600082821b905092915050565b600060088302610c5b7fffffffffffffffffffffffffffffffffffffffffffffffffffffffffffffffff82610c1e565b610c658683610c1e565b95508019841693508086168417925050509392505050565b6000819050919050565b6000610ca2610c9d610c988461073b565b610c7d565b61073b565b9050919050565b6000819050919050565b610cbc83610c87565b610cd0610cc882610ca9565b848454610c2b565b825550505050565b600090565b610ce5610cd8565b610cf0818484610cb3565b505050565b5b81811015610d1457610d09600082610cdd565b600181019050610cf6565b5050565b601f821115610d5957610d2a81610bf9565b610d3384610c0e565b81016020851015610d42578190505b610d56610d4e85610c0e565b830182610cf5565b50505b505050565b600082821c905092915050565b6000610d7c60001984600802610d5e565b1980831691505092915050565b6000610d958383610d6b565b9150826002028217905092915050565b610dae8261079e565b67ffffffffffffffff811115610dc757610dc6610917565b5b610dd18254610b5c565b610ddc828285610d18565b600060209050601f831160018114610e0f5760008415610dfd578287015190505b610e078582610d89565b865550610e6f565b601f198416610e1d86610bf9565b60005b82811015610e4557848901518255600182019150602085019450602081019050610e20565b86831015610e625784890151610e5e601f891682610d6b565b8355505b6001600288020188555050505b505050505050565b600081905092915050565b6000610e8d8261079e565b610e978185610e77565b9350610ea78185602086016107ba565b80840191505092915050565b6000610ebf8284610e82565b915081905092915050565b6000604082019050610edf600083018561088f565b8181036020830152610ef181846107f5565b9050939250505056fea26469706673582212205e27e4d39620b1bfdba20c8e5917bde2a1e8981fcdd186e7592c30bb11205baa64736f6c634300081e0033",
  "linkReferences": {},
  "deployedLinkReferences": {}
}